0029029070999991901010413004+64333+023450FM-12+000599999V0202301N008219999999N0000001N9+00441+99999102261ADDGF108991999999999999999999
